:020000040000fa
:080000000002040000000000f2
:020000040000fa
:04000800b20300003f
:020000040000fa
:04000c00b20300003b
:020000040000fa
:04001000b203000037
:020000040000fa
:04001400b203000033
:020000040000fa
:04001800b20300002f
:020000040000fa
:04001c00b20300002b
:020000040000fa
:04002000b203000027
:020000040000fa
:04002400b203000023
:020000040000fa
:04002800b20300001f
:020000040000fa
:04002c00b20300001b
:020000040000fa
:04003000b203000017
:020000040000fa
:040034001a030000ab
:020000040000fa
:04003800b20300000f
:020000040000fa
:04003c00b20300000b
:020000040000fa
:04004000b203000007
:020000040000fa
:04004400b203000003
:020000040000fa
:04004800fa020000b8
:020000040000fa
:04004c00b2030000fb
:020000040000fa
:04005000b2030000f7
:020000040000fa
:04005400560300004f
:020000040000fa
:040058008803000019
:020000040000fa
:04005c003a03000063
:020000040000fa
:04006000b2030000e7
:020000040000fa
:04006400b2030000e3
:020000040000fa
:04006800b2030000df
:020000040000fa
:04006c00b2030000db
:020000040000fa
:04007000b2030000d7
:020000040000fa
:04007400b2030000d3
:020000040000fa
:04007800b2030000cf
:020000040000fa
:04007c00b2030000cb
:020000040000fa
:04008000b2030000c7
:020000040000fa
:04008400b2030000c3
:020000040000fa
:04008800b2030000bf
:020000040000fa
:04008c00b2030000bb
:020000040000fa
:04009000b2030000b7
:020000040000fa
:040094000203000063
:020000040000fa
:04009800b2030000af
:020000040000fa
:04009c00b2030000ab
:020000040000fa
:0400a000b2030000a7
:020000040000fa
:0400a400b2030000a3
:020000040000fa
:0400a800b20300009f
:020000040000fa
:0400ac00b20300009b
:020000040000fa
:0400b000b203000097
:020000040000fa
:0400b400b203000093
:020000040000fa
:0400b800b20300008f
:020000040000fa
:0400bc00b20300008b
:020000040000fa
:0400c000b203000087
:020000040000fa
:0400c400b203000083
:020000040000fa
:0400c800b20300007f
:020000040000fa
:0400cc00b20300007b
:020000040000fa
:0400d000b203000077
:020000040000fa
:0400d400b203000073
:020000040000fa
:0400d800b20300006f
:020000040000fa
:0400dc00b20300006b
:020000040000fa
:0400e000b203000067
:020000040000fa
:0400e400b203000063
:020000040000fa
:0400e800b20300005f
:020000040000fa
:0400ec00b20300005b
:020000040000fa
:0400f000b203000057
:020000040000fa
:0400f400b203000053
:020000040000fa
:0400f800b20300004f
:020000040000fa
:0400fc00b20300004b
:020000040000fa
:04010000b203000046
:020000040000fa
:04010400b203000042
:020000040000fa
:04010800b20300003e
:020000040000fa
:04010c00b20300003a
:020000040000fa
:04011000b203000036
:020000040000fa
:04011400b203000032
:020000040000fa
:04011800b20300002e
:020000040000fa
:04011c00b20300002a
:020000040000fa
:04012000b203000026
:020000040000fa
:04012400b203000022
:020000040000fa
:04012800b20300001e
:020000040000fa
:04012c00b20300001a
:020000040000fa
:04013000b203000016
:020000040000fa
:04013400b203000012
:020000040000fa
:04013800b20300000e
:020000040000fa
:04013c00b20300000a
:020000040000fa
:04014000b203000006
:020000040000fa
:04014400b203000002
:020000040000fa
:04014800b2030000fe
:020000040000fa
:04014c00b2030000fa
:020000040000fa
:04015000b2030000f6
:020000040000fa
:04015400b2030000f2
:020000040000fa
:04015800b2030000ee
:020000040000fa
:04015c00b2030000ea
:020000040000fa
:04016000b2030000e6
:020000040000fa
:04016400b2030000e2
:020000040000fa
:04016800b2030000de
:020000040000fa
:04016c00b2030000da
:020000040000fa
:04017000b2030000d6
:020000040000fa
:04017400b2030000d2
:020000040000fa
:04017800b2030000ce
:020000040000fa
:04017c00b2030000ca
:020000040000fa
:04018000b2030000c6
:020000040000fa
:04018400b2030000c2
:020000040000fa
:04018800b2030000be
:020000040000fa
:04018c00b2030000ba
:020000040000fa
:04019000b2030000b6
:020000040000fa
:04019400b2030000b2
:020000040000fa
:04019800b2030000ae
:020000040000fa
:04019c00b2030000aa
:020000040000fa
:0401a000b2030000a6
:020000040000fa
:0401a400b2030000a2
:020000040000fa
:0401a800b20300009e
:020000040000fa
:0401ac00b20300009a
:020000040000fa
:0401b000b203000096
:020000040000fa
:0401b400b203000092
:020000040000fa
:0401b800b20300008e
:020000040000fa
:0401bc00b20300008a
:020000040000fa
:0401c000b203000086
:020000040000fa
:0401c400b203000082
:020000040000fa
:0401c800b20300007e
:020000040000fa
:0401cc00b20300007a
:020000040000fa
:0401d000b203000076
:020000040000fa
:0401d400b203000072
:020000040000fa
:0401d800b20300006e
:020000040000fa
:0401dc00b20300006a
:020000040000fa
:0401e000b203000066
:020000040000fa
:0401e400b203000062
:020000040000fa
:0401e800b20300005e
:020000040000fa
:0401ec00b20300005a
:020000040000fa
:0401f000b203000056
:020000040000fa
:0401f400b203000052
:020000040000fa
:0401f800b20300004e
:020000040000fa
:0401fc00b20300004a
:020000040000fa
:04020000b203000045
:020000040000fa
:04020400b203000041
:020000040000fa
:04020800b20300003d
:020000040000fa
:04020c00b203000039
:020000040000fa
:04021000b203000035
:020000040000fa
:04021400b203000031
:020000040000fa
:04021800b20300002d
:020000040000fa
:04021c00b203000029
:020000040000fa
:04022000b203000025
:020000040000fa
:04022400b203000021
:020000040000fa
:04022800b20300001d
:020000040000fa
:04022c00b203000019
:020000040000fa
:04023000b203000015
:020000040000fa
:04023400b203000011
:020000040000fa
:04023800b20300000d
:020000040000fa
:04023c00b203000009
:020000040000fa
:04024000b203000005
:020000040000fa
:04024400b203000001
:020000040000fa
:04024800b2030000fd
:020000040000fa
:04024c00b2030000f9
:020000040000fa
:04025000b2030000f5
:020000040000fa
:04025400b2030000f1
:020000040000fa
:04025800b2030000ed
:020000040000fa
:04025c00b2030000e9
:020000040000fa
:04026000b2030000e5
:020000040000fa
:04026400b2030000e1
:020000040000fa
:04026800b2030000dd
:020000040000fa
:04026c00b2030000d9
:020000040000fa
:04027000b2030000d5
:020000040000fa
:04027400b2030000d1
:020000040000fa
:04027800b2030000cd
:020000040000fa
:04027c00b2030000c9
:020000040000fa
:04028000b2030000c5
:020000040000fa
:100400006f1421000eff2c000e0188000000000078
:10041000000020000000e000020032000001200087
:100420002002880014000700d00007000000e00050
:1004300003003a004065210001002000020037005f
:100440000000200001002000810f70000100320038
:100450000f000700000020000000e0000200320052
:1004600000000200000000003a0e02000000000040
:100470000040da000000fe00200020000000e00044
:1004800002003200100020009001880000000600e9
:10049000a1028800800478000000eb001f003700f4
:1004a000e284440054a0b4009905ba00e2844400f8
:1004b00054a0b4009906ba00e284440054a0b400e9
:1004c0000006eb00476fde00fd07b200ae018800ba
:1004d000636ce10003003a000ad801000000eb0061
:1004e0000e003700606ce10008003a00004deb00a0
:1004f0000a05e800020039003420ec000af0a000f0
:100500008b05e900f9ff3e00040037006168e10057
:10051000010032000086eb000b00070019c7ba008b
:100520000e04e0001905ba0003003a000a00e000da
:10053000dbff3a0000000600fe07b200ae028800b2
:100540008a047800f5ff37000cd0a300e20f4d00bd
:100550001c003b0089027800354dba000a05e8000e
:10056000020039003420ec000af0a0008b05e900fd
:100570000f003200254dba000a05e80002003900dc
:100580003420ec000af0a0008b05e90008003200de
:100590000c00e0000600320015cdba000a05e800a4
:1005a000020039003420ec000af0a0008b05e900bd
:1005b0008984e80054a0b4000b00e000e2ff3a0098
:1005c000000006009902ba00055d78008b05e9007d
:1005d000f7ff3200c82ade00055d78008b05e900d0
:1005e000f3ff32000c00e000f1ff320019ddba0029
:1005f000eeff37000000fa000108a9000080fa00b1
:1006000000400600809fbe000000fa000368a900b9
:10061000108080002180800061004000e080480060
:1006200010808800218088000080fa004f00be0002
:10063000004006003600f800809fbe00829fbe008a
:10064000849fbe00869fbe000000fa000068a900db
:1006500038060700b30807000080fa004f03be0009
:100660004f02be004f01be004f00be003600f90031
:1006700000400600801f78000000fa0001a8a900d1
:1006800000188000e089880010188000f089880038
:1006900020188000008a880010c0b3001bf0b7004b
:1006a0000080fa004f00780000400600801f7800ac
:1006b0000000fa000168a9001011800064006000c9
:1006c0000000e000010032002242a9001011800069
:1006d000620060000000e000050032002222a90054
:1006e000040037003011800020118800010037001d
:1006f0000000000010118000610060000000e000b8
:10070000f8ff3a000080fa004f0078000040060031
:100710003600f800809fbe00829fbe00849fbe000e
:10072000869fbe000000fa000188a9004180800079
:1007300030808000808f5000020032001e080700c9
:10074000010037000a70ef000080fa004f03be007e
:100750004f02be004f01be004f00be003600f90040
:10076000004006000040da000000fe000000050026
:1007700014002000aa033700f4ff2f00a80337005d
:100780000001be003c0007000470a70003f0a100b8
:100790006509b100160032000d0035006828e1003f
:1007a00006003500f0ff2f00f1ff27000300e000f6
:1007b00013003b000100280000000500000040007d
:1007c000818048008502e900fcff3a0008003700fc
:1007d000f88f420002003c008000eb0000000500a2
:1007e0008100d1000080d3008502e800fcff3a00c0
:1007f0000300e00002003b0060001000e0801800f1
:10080000000006000001be001b0007000470a700e6
:1008100003f0a10003f8a30013003a006509b1003a
:1008200010003200090035006928e100020035009f
:100830000100280000000500000040008180480001
:100840008502e900fcff3a0000000600f88f420034
:10085000050035008100d1000080d3008502e8004a
:10086000fcff3a00000006008000eb0000000500dd
:100870006011b80085033700c70ade00f107b20037
:10088000f50fb20008003200e1cf42000200320052
:100890000170a00024000500810f700001003200eb
:1008a0000408050044000500810f700002003a00b2
:1008b000140005008502e9000000400081c04800e6
:1008c000fcff3b000170a0002400050007f8270092
:1008d000078361000638e10004003a00f7072000b2
:1008e000878361008703710001003a0003f0a200d2
:1008f000889fbe008a9fbe008c9fbe00470ade0014
:100900000480a100c71ade000580a10007002800ae
:100910000785600087856100f70f20000720e10050
:100920009e0032000728e1009c003200010678009a
:100930000400e000b4003200f70720008780600068
:100940000170a0000500e000c0003200f7072000a1
:10095000878161000370a000050652000f003a0075
:100960000b50e1000b0032000308e10002003a00e6
:100970000200e1007e00320002045000838458002f
:10098000040031000001fd008101fd008402fd0032
:100990008a05fd006044b800210037000520e10011
:1009a00005003d000001fd008101fd008402fd0005
:1009b0008a05fd00050652007a60e1000500350059
:1009c0000170a1004722dd00848070008a807000e1
:1009d000630037006044b800ef02660007ff2f0095
:1009e000070666000500e00006003400f0831200f0
:1009f0008714dd000511de00071bdd000601710014
:100a00008519de007060e1000500350009047800fa
:100a100082047800030178008001eb007006560024
:100a20000b50e10003003a000200400083804800c0
:100a30000400370060041400e0841c000200580029
:100a4000838058000188a300060032008100d10095
:100a50000080d3008984d3000884d3000402e80016
:100a6000270037000178a30025003a000100e000cc
:100a7000030032008186cf00698656000a003700e5
:100a80008c0020000000e00004003a00090078001b
:100a9000880478000004eb00700252008086cf00ca
:100aa0000d0646000c06e9007060e1000600350006
:100ab0008000780009007800880478000004eb00ca
:100ac00070065600700252000c00e0000c0034006a
:100ad0008c08dd00f00316000703de00868070003e
:100ae0000c00dd00074bde00060070008c4cdd00c2
:100af0000743de00868474000c44dd000c025200c3
:100b00006120e1002000350061016000070028003d
:100b100087816400f7ff2700878364000703740060
:100b20000300e0000600320082037300040032007c
:100b30000000e800e08048000188a3000e003a00b1
:100b4000f70f20000720e1004a003d000170a100de
:100b50004722dd00810072008a8070000000be0024
:100b60004f06be004f05be004f04be000000060049
:100b70006000b800faff37008100d1000080d30088
:100b80000402e800eeff37000401780089017400d8
:100b9000a10107008a807000f1ff3700f70107000c
:100ba000070278000001fd008101fd00f30107004c
:100bb00087027800850372000778a30004003200e2
:100bc0000001fd008101fd0006020700e4ff37007f
:100bd000850362000768a300080032000b50e100a3
:100be00003003200f0ff2f00f1ff2700dcff370089
:100bf0000001fd008101fd00d9ff37000468a3005a
:100c0000d7ff3200faff3700f8ff27008883600023
:100c10000b003a000000e00009003a008303640082
:100c200082837300020032000200be00ccff370056
:100c30000b50e100ceff3a000200be00c8ff3700b3
:100c400014002000810064003eff3700f8ff2700f9
:100c50008883610004003a000200e00002003a00cc
:100c60008c007800beff370015002000830164006f
:100c700039ff370001f827000000200081007500cf
:100c8000b7ff3700889fbe008a9fbe008c9fbe00c2
:100c90001b0020000202be00058668000600280036
:100ca000060666004709de00f20fb200820032003d
:100cb0000243e80080003200c729de00f30fb200d3
:100cc0007d0032000343e8007b003200f107b200f0
:100cd0000170a000f507b2000570a000c708dd0094
:100ce0004903de00868070004700dd00c72add0072
:100cf0004923de00868272004722dd000305510091
:100d000004035000858358000300310000004000b8
:100d1000818048000a05e9008c1f78008a9fbe0088
:100d200004005000858058000402420085824a0079
:100d300000004000818048000005eb000004be0078
:100d40006033b8000406be000d48e10056003100d3
:100d5000110009004dccd8000c01b8000d02b800fc
:100d60008481410060824a008283530003045c0056
:100d700084845c0060055d000a00e00025003a0004
:100d8000800578000d40e1004900310088007800be
:100d900007007800110009004d88d8000c01b80048
:100da0000d02b8008481410060824a006003110096
:100db00083835b0004045c00e0845c000900e000c5
:100dc00021003a004f01be000300e0002b0032007a
:100dd000e3016000070673008c817100010032009e
:100de000640070004200de004e5edd000c0070000a
:100df000c258de0001e0a00083010700cf017800a7
:100e0000818071004f06be004f05be004f04be003a
:100e1000000006008c8343000d044c00e0844c006d
:100e200060054d000000e9000a00e000d4ff320038
:100e30008c8343000d044c00e0844c0060054d00a1
:100e40000000e900ceff37000c0343008d834b0008
:100e500060044c00e0844c000000e9000900e00060
:100e6000d8ff32000c0343008d834b0060044c001c
:100e7000e0844c000000e900d2ff37004200de00b1
:100e80004e5edd000c007000c258de0001e0a000e4
:100e9000cf0178000300e000daff320060001000ac
:100ea000e0801800d7ff3700f0ff2f00aaff3700bf
:100eb000f0ff2f00b9ff37000404be002f01070028
:100ec000870678000004fd008104fd002b01070067
:100ed000078366000678a300030032000960a700bc
:100ee0000800be002c0037000d78a300020032007d
:100ef0000800be00280037000778a30026003a004b
:100f000001f0a10009f0a1000668a300030032006f
:100f1000f1ff2700f0ff2f00baff37000d68a30094
:100f2000030032000800be008c807000b5ff37005f
:100f30000768a30007003a000648a3000300320038
:100f4000f1ff2700f0ff2f00aeff37000d48a30090
:100f5000030032006000b8008c807000a9ff3700e9
:100f60000748a3000400320001f827000000200019
:100f70008c807000a3ff3700760107000004fd009d
:100f80008104fd0002057800720107000802be001e
:100f90008a01780059ff37000160a000120220008a
:100fa000e280880097ff37000100e0001200320065
:100fb0000500e00010003200889fbe008a9fbe003e
:100fc0008c9fbe000006eb0001f8a3000300320076
:100fd00060001000e08018000cf0a00005f8a300ed
:100fe0000300320060021200e0821a000cf0a2003e
:100ff0008005eb0041ff37006000b80002000500eb
:10100000038368000700280007036300470ade0027
:101010000480a100c71ade000580a100f70f2000a0
:101020000720e100420032000728e10040003200c2
:10103000889fbe008a9fbe008c1f7800f107b20017
:10104000f307b2000400e000640032000170a00069
:101050000500e000680032000370a0008505420032
:10106000eb07b1000204b8000302b8008484440016
:1010700060854a00020ab800848444000a854a0058
:10108000030ab80004054500040033000804d0003a
:101090008984d2000a85d2008b05e9006158e100fd
:1010a0003d00350002102000090161000308200006
:1010b00089816100f7072000878364000886730038
:1010c000c84cde00c853dd00878474004855de003c
:1010d0000300e000060032008203760004003200c4
:1010e0008904e80060054d000a88a3000c003a005e
:1010f000f70f20000758e10044003d000a70a100ee
:10110000c75ddd000a8575008a007300090078005c
:101110004f0678004f05be004f04be0000000600d9
:101120000a05d1008984d3008b05e800f0ff370061
:10113000881f7800060478009000070007027800f6
:101140000001fd008101fd008c000700870278008e
:10115000850372000778a300050032000001fd003e
:101160008101fd009f0007004f0478000000060089
:10117000850372000748a30003003200f0ff2f0030
:10118000f1ff2700f8ff37000000200001f82700da
:1011900088807000f4ff3700880178004848dd003f
:1011a000808171004848de00c850dd0001007000f9
:1011b000c850de00060478000b0178001600070016
:1011c00088807000d2ff37000500e0000500320083
:1011d000170020003a0007009dff370081037000d0
:1011e000f9ff3a00860078004f0678004f05be00f0
:1011f0004f04be000000050083037100f9ff3200b8
:10120000270020002e00070094ff370001f8270078
:1012100086807000f4ff37000100e00026003200f5
:10122000610111007810e10023003c006022b80049
:101230007010e100040035008002780001007800a1
:101240008000eb00700151000200e0000900340052
:1012500070031100062add00822ade008603dd000d
:10126000878272000200de00860bdd00070070003e
:101270008208de0084817100f4ff2700048262008e
:101280008481710004002800848262006102600091
:1012900005f0a6000000060004827100070032007d
:1012a0000000e800e0804800000006000002be00e8
:1012b0006000b800efff37006000b80000000600d3
:1012c000889fbe000004eb006138e10016003a0080
:1012d0000100e00008003a00c800de004800dd0020
:1012e000880020000100e00003003a00c800de0092
:1012f0004800dd00680444008184cf00e984540084
:10130000060034008908dd00f08314008703de0046
:10131000878070000900dd000904440061021400a8
:101320004f04be00000006000300e00008003a0081
:10133000c811de004811dd00880020000300e00035
:1013400003003a00c811de004811dd0068044400c3
:101350008384cf00e9845400060034008919dd003d
:10136000f08314008713de00878171000911dd000e
:1013700009044400e1021400e9ff370027002000bf
:1013800001f0a70017002000470bde00f60fb200a7
:10139000040032000643e8000a0032004702b300ae
:1013a0000000060001037800f607b2000603700093
:1013b00002003a000703b300000006008702b300f2
:1013c0000000060001037800f607b2000603700073
:1013d000020032000770a000000006000760a000b5
:1013e000000006000478a300040032000578a30082
:1013f000030032000168a30001003a000200be00b1
:101400000160a0000000060081017000270032008a
:101410008002eb0001f8a30003003200600010001e
:10142000e080180015002000f407200002024200ae
:1014300020003400f703200087036000060420002a
:101440000003630002082000000161004700de0085
:10145000c909dd0000807100c708de000600e00059
:101460000800320087037100060032001000b0004f
:101470000180b0000188a30002003200c108de0034
:101480000402e800f107b200f30f20000320e1009e
:1014900003003d004722dd00810072002900370073
:1014a00001f827000000eb00260037006000b800bc
:1014b00000000600680212007f20e10002003400f4
:1014c0006000b8001f0037006011b8007020e10014
:1014d0000400350080017800010078008000eb00f6
:1014e000700252000400e00009003400f003120012
:1014f0000719dd008419de000703dd008681710015
:101500000400de00070bdd00060070008408de002a
:10151000f7ff27008383630087037100060028001c
:1015200003036300070032000700e00003003a00f5
:101530006101600002817300020032001000b000ff
:101540000180b0000500a6000000060001f0a00028
:10155000000006004f0ade004709de00f107b20076
:10156000f20fb2000b003200f207b1000170a000d0
:10157000c708dd00c901de00838070004700dd0080
:101580000400a6000000060060001000e0801800c3
:1015900000000600810f700001003a000000060004
:1015a0008182cf000500e00010003e008082cf0065
:1015b000ee8242007028e1000400390007003e007e
:1015c000800078000000eb000e00370070831200ee
:1015d0008600de000500dd000a003700708352003f
:1015e0008600dd000000eb0006003700e2825200ba
:1015f0008508dd00708312000603de00868070001f
:101600000500dd007507b0000501ea000400a60032
:101610000000060060001000e080180000000600d6
:10162000889fbe008a9fbe00841f78006c00070060
:101630004f00780011003300f0ff2f00838f6c0003
:1016400006003b00040565000a00a70008003700fb
:1016500009f0a6001000200008003700820f540097
:10166000838f5c00030039001000200001003e0061
:101670000000200009f0a7000000ea004f05be00ae
:101680004f04be000000e00000000600889fbe007e
:101690008a9fbe0000827000040271000482710003
:1016a000260032000004be000200be006011b80037
:1016b0006b092000950220000182cf000a0039004a
:1016c0000541b1000082cf00070039000541b1009b
:1016d0000982cf00040039000541b1000882cf0023
:1016e000010039000541b1000542520012003200ec
:1016f0000a003b0082817100610164008100d10019
:101700000080d3008984d3000884d3008b05e800cf
:101710000442e800f7ff3a000700370008044400dd
:1017200089844c0000004800818048008b05e90056
:101730000442e900f9ff3a00030007004f05be002c
:101740004f04be00000006008100200061805500ab
:101750000b003d000b00200061fe2f000100e100a6
:101760001d00340082817100610164008904d10090
:101770000884d3000000e800faff3a00710020005e
:101780006100640003007000020060000900320084
:1017900061044400e0844c000988a5000500320083
:1017a0008b05e8006808e10002003a008904d100d6
:1017b0000884d300f20f20000258e10005003d002c
:1017c000c75ddd00f907b200898075000800780068
:1017d000000006000bf827008b00780000000500d1
:1017e0000004be0024fc07000003be000405be0088
:1017f0000200be0020fc0700844f750000000600b8
:020000040000fa
:101800000000fa0018d0bf000080fb00cf80de008f
:10181000b200200003002000820f5000838f580088
:101820006e003e00000601000b0037001400370078
:101830001d0037002700370028003700310037002f
:10184000320037003b0037003c0037004d003700c6
:101850004e0037005f0037000230ef000430ef0029
:101860000041eb006000b8005302070012c0b30053
:101870006000b8005002070010c0b30018f0b700b5
:101880001280800023808000803e20000100200024
:10189000800f5100818f59005300360020c0b300e3
:1018a00018f0b70051003700608080007180800020
:1018b0000041eb00400207006080800071808000e2
:1018c00012c0b3003c02070030c0b30018f0b700ec
:1018d0004600370047000700440037006080800062
:1018e000718080000041eb003302070012c0b3009a
:1018f0006000b8003002070050c0b30018f0b70015
:101900003a0037003b000700380037000041eb0089
:101910006000b800280207006080800071808000ad
:1019200012c0b3002402070070c0b30018f0b70063
:101930002e0037002f0007002c0037006080800049
:10194000718080000200200003002400cdfc07000d
:101950000041eb0018020700608080007180800069
:1019600001f0a2000200200003002400c5fc0700d3
:1019700012c0b3001002070090c0b30018f0b70007
:101980001a0037001b000700180037006080800035
:101990007180800001f0a2000200200003002400fa
:1019a000b8fc07000041eb000302070060808000e4
:1019b000718080000200200003002400b1fc0700b9
:1019c00012c0b300fc010700b0c0b30018f0b700ac
:1019d0000600370007000700040037001870ef000a
:1019e0000000000001003700000000000080fa0045
:1019f000000006000200fa00881f78000040eb009b
:101a0000004f7800808980009189800018c0b30061
:101a100002002000031f240055fb07000000e00027
:101a2000010035000044eb000804e000190032001a
:101a3000a0898000b189800018c0b3000200200096
:101a4000031a24004cfb07000000e00001003c00ea
:101a50000044eb000804e0000e003200c089800062
:101a6000d189800018c0b30002002000031f2400a9
:101a700041fb07000000e00001003c000044eb00d7
:101a80000804e0000300320020c0b300004f7800db
:101a900055003700808980009189800018c0b3000c
:101aa00002002000031f240033fb07000000e000b9
:101ab00001003c000044eb000804e0001900320083
:101ac000a0898000b189800018c0b3000200200006
:101ad000031a240028fb07000000e00001003c007e
:101ae0000044eb000804e0000e003200c0898000d2
:101af000d189800018c0b30002002000031f240019
:101b00001bfb07000000e000010035000044eb0073
:101b10000804e0000300320010c0b300004f78005a
:101b200031003700a0898000b189800018c0b3005f
:101b300002002000031a24000dfb07000000e00053
:101b4000010035000044eb000804e000030032000f
:101b500030c0b300004f7800230037008089800038
:101b60009189800018c0b30002002000031f2400e8
:101b700001fb07000000e00001003c000044eb0016
:101b80000804e00018003200a0898000b1898000bc
:101b900018c0b30002002000031a2400f6fa070060
:101ba0000000e00001003c000044eb000804e000fd
:101bb0000d003200c0898000d189800018c0b300b8
:101bc00002002000031f2400ebfa07000000e000e1
:101bd00001003c000044eb000804e0000200320079
:101be0000040eb00004f78001e4078000004e00049
:101bf00003003a0020c0b30019f0b700110037000d
:101c00001e407800e24f500003003a0040c0b3008d
:101c100019f0b7000b0037001e407800e14f50006c
:101c200003003a0060c0b30019f0b70005003700a8
:101c30001e407800e34f500002003a0080c0b3001d
:101c400019f0b70019d0bf008080fb0018d0bf008a
:101c50000080fb000000e900808f5000020032008d
:101c600019d0bf0018f0b7004f0478000080fa00c8
:101c7000000006000600fa00881f7800df03070056
:101c8000b10307008f000700620107007a01070017
:101c900084010700ed0207007703070060808000e1
:101ca000718080000041eb004301070060808000ec
:101cb0007180800012c0b3003f01070064cea9000c
:101cc00064eea900254ea9000100370000000000c5
:101cd0001c030700e14f5000fcff3a001d03070002
:101ce00014030700000f78001e0078001000780031
:101cf0008000eb00defa07003233230033052400b6
:101d0000bffc07000200200003582400ddfb070091
:101d1000d2cc2c00c3042400b9fc070010079800a3
:101d2000210798001e019000ae01900000002000e5
:101d300081202400d3fb070002002000030a2400b6
:101d4000e2fa070080898800918988001e80e800f7
:101d5000100078008000eb00c5fa07003233230042
:101d600033052400a6fc07000200200003582400cd
:101d7000c4fb0700d2cc2c00c3042400a0fc070045
:101d800010079800210798001e019000ae019000f6
:101d90000000200081202400bafb07000200200080
:101da000030a2400c9fa0700a0898800b1898800c5
:101db0009e00780064804000100078008000eb00f6
:101dc000abfa070032332300330524008cfc0700f4
:101dd0000200200003582400aafb0700d2cc2c00ec
:101de000c304240086fc0700100798002107980010
:101df0001e019000ae019000000020008120240010
:101e0000a0fb070002002000030a2400affa07002d
:101e1000c0898800d18988008089800091898000ec
:101e200018c0b30002002000031f240052fa07006c
:101e30000000e00001003c000044eb000804e0006a
:101e400002003200254ea80001003700254ea900ef
:101e5000a0898000b189800018c0b3000200200072
:101e6000031f240044fa07000000e00001003c00ca
:101e70000044eb000804e0000200320064eea80019
:101e80000100370064eea900c0898000d18980007c
:101e900018c0b30002002000031f240036fa070018
:101ea0000000e00001003c000044eb000804e000fa
:101eb0000200320064cea80085ff370064cea9007e
:101ec00083ff37000000fa001160800080ff2f00c0
:101ed000008060001060880000fa20002060880008
:101ee00023aca800238ca80011618000f03f2f00d4
:101ef0000080600000a0a000106188003000200079
:101f000020618800c3aca800c38ca80011668000c3
:101f1000f03f2f000080600000a0a0001066880045
:101f2000300020002066880001eca8000080fa0044
:101f3000000006000000fa00889fbe00648980004f
:101f400075898000408980005189800018c0b300e5
:101f50000001be000400be0005fa07000000e0001a
:101f6000010035000044eb000804e0000d003200e1
:101f700048898000598980006489800075898000c3
:101f800080808000918080000001be000400be00bf
:101f900057fa07000801be00720107006089880037
:101fa000718988006489800075898000408980007b
:101fb0005189800018c0b3000001be000400be00bb
:101fc000edf907000000e00001003c000044eb00d8
:101fd0000804e0000d003200488980005989800023
:101fe00064898000758980008080800091808000f5
:101ff0000001be000400be0034fa07000801be0064
:10200000400107006089880071898800608980002c
:102010007189800018c0b3006011b800d4f90700be
:102020000000e000010035000044eb000804e0007f
:1020300004003200c3cca90024eea800c3eca80021
:1020400003003700c3eca90024cea800c3cca8002d
:10205000608980007189800014010700020020005f
:1020600003222400e6fb0700e6f9070000007800e1
:1020700030668800248980003589800000898000ce
:102080001189800018c0b3000001be000400be002a
:10209000b7f907000000e000010035000044eb0044
:1020a0000804e0000d0032000889800019898000d2
:1020b00024898000358980008080800091808000a4
:1020c0000001be000400be0009fa07000801be00be
:1020d0002401070020898800318988002489800034
:1020e00035898000008980001189800018c0b30004
:1020f0000001be000400be009ff907000000e000e0
:1021000001003c000044eb000804e0000d00320038
:102110000889800019898000248980003589800021
:1021200080808000918080000001be000400be001d
:10213000e6f907000801be00f200070020898800c8
:1021400031898800208980003189800018c0b3005f
:102150006011b80088f907000000e00001003c00b1
:102160000044eb000804e0000400320023cca90086
:1021700015eea80023eca8000300370023eca9000b
:1021800015cea80023cca8002089800031898000ca
:10219000c6000700020020000322240098fb07006d
:1021a00098f9070000007800306188004f04be00f5
:1021b0000080fa00000006000600fa00008fbe0052
:1021c000424798004e4090000004e00008003a00aa
:1021d0000200200003f823001e0078009e009000fb
:1021e000c3f907004089880051898800070037003b
:1021f0004e409000e14f500004003a001e0178006c
:102200009e01900002898800138988000080fa00ee
:10221000000006000000fa0013e1a90011e1a90086
:102220001061a8001021a90081088000f0fc2f0097
:1022300000806000800888000a21ef000621ef007e
:10224000404c20007008880000402b006008880087
:102250002142800080ff2f00008060000000a0006d
:10226000204288000108a9002108a80011e1a80067
:102270000080fa00000006000000fa0005e1a90055
:102280000421a90000002000812c24001300070075
:102290000068a9002068a80005e1a8000080fa00f5
:1022a000000006000000fa001fe1a9001e21a9009d
:1022b000f1088000f0fc2f0000806000f00888002a
:1022c00000c42900d00888000368a9002368a8007a
:1022d0001fe1a8000080fa00000006000400fa00d8
:1022e000881f7800008fbe0021088000f0fc2f00be
:1022f00000806000200888001e0178009e01900088
:102300000068290081c124005efa070018c0b300ec
:1023100002f02f00f377240017f907000000e00017
:1023200001003c000044eb000804e00054003200cf
:1023300021088000f0fc2f00008060000040a00019
:10234000200888001e0178009e0190000068290086
:1023500081c124004bfa0700020020000310240072
:1023600048fa070018c0b30002f02f00f3772400ea
:1023700001f907000000e00001003c000044eb0010
:102380000804e0003200320021088000f0fc2f0039
:10239000008060000050a000200888001e01780026
:1023a0009e0190000068290081c1240035fa0700d1
:1023b000020020000328240032fa070018c0b300ee
:1023c00002f02f00f3772400ebf807000000e00094
:1023d00001003c000044eb000804e0001000320063
:1023e0002108800000032000010070002008880000
:1023f0001e0178009e0190000068290081c1240020
:1024000020fa070002002000033824001dfa07000c
:10241000dbf8070000007800100888002000370073
:102420001e0178009e0190000068290081c12400ef
:1024300014fa0700020020000328240011fa070004
:10244000cff807000000780010088800140037005b
:102450001e0178009e0190000068290081c12400bf
:1024600008fa0700020020000310240005fa070004
:10247000c3f8070000007800100888000800370043
:102480001e0178009e0190000068290081c124008f
:10249000fcf90700baf8070000007800100888006f
:1024a0004f0478000080fa00000006000400fa00e3
:1024b000881f7800008fbe0018c0b3006011b800fc
:1024c0001e0078009e009000abf807000000e000be
:1024d00001003d000044eb000804e000030032006e
:1024e0001e0078009e009000030037001e00780058
:1024f0009e00900001f0a2004f0478000080fa00d6
:10250000000006000800fa00881f7800008fbe0057
:10251000220798003307980018c0b3002e019000de
:10252000be0190001e0078009e00900092f8070007
:102530000000e00001003c000044eb000804e00063
:10254000030032001e0078009e0090000200370059
:102550002e009000be0090004f0478000080fa002a
:10256000000006000800fa00881f7800008fbe00f7
:10257000220798003307980018c0b3002e0190007e
:10258000be0190001e0078009e00900078f80700c1
:102590000000e000010035000044eb000804e0000a
:1025a000030032001e0078009e00900002003700f9
:1025b0002e009000be0090004f0478000080fa00ca
:1025c000000006000c00fa00881f7800008fbe0093
:1025d0002207980033079800440798005507980091
:1025e00018c0b3004e019000de0190001e0078007c
:1025f0009e00900060f807000000e00001003c0031
:102600000044eb000804e000040032004e0190009a
:10261000de019000028fbe000e00370018c0b3002c
:102620002e019000be0190001e0078009e009000d8
:102630004ff807000000e000010035000044eb0007
:102640000804e000030032002e019000be0190005b
:10265000028fbe001e0078009e0090004f0478009c
:102660000080fa00000006000400fa00008fbe009f
:10267000b2fd2000930424001e0078009e0090000c
:1026800080f9070002002000433324005cfa0700b1
:102690000080fa00000006000400fa00008fbe006f
:1026a000b2fd2000930424001e0078009e009000dc
:1026b00053fa0700020020004333240071f9070099
:1026c0000080fa00000006000600fa0010079800db
:1026d000210798000040eb00004f780054000700ed
:1026e000ae009000810f5000110034000040eb005c
:1026f000004f7800060037001e80fb009e0090000f
:1027000000804000104078000b0007001e4fe800da
:102710009e80fb002e009000808f5000f6ff350059
:102720002e0007000004e00001003a00220007002c
:102730000080fa00000006000200fa00004f780056
:1027400030808000e1012100008040001e487800b8
:10275000308080000000e8003080880031808000f8
:10276000f0072000808f5000010034000630ef0099
:102770000080fa00000006000200fa00408080009d
:10278000e101210000804000104f7800408080006f
:102790000000e8004080880041808000f0072000b1
:1027a000808f5000010034000830ef001e40780098
:1027b0000080fa00000006000200fa0010c0b3001a
:1027c0000af0b700ecff0700004f78001e80fb0006
:1027d000201188000080fa00000006000000fa00c6
:1027e0000ad0bf000080fa00000006000200fa00d4
:1027f0003180800040808000808f500004003500d0
:102800003180800040808000008f5000050037003c
:1028100030808000010820008080400040808000df
:10282000008f50001e0078000080fa0000000600b3
:102830000200fa00edff070001082000008f5000a1
:102840001e0078000080fa00000006000000fa0078
:1028500021e3a9002143a80001198000f0cf2f0037
:1028600000806000001988002043a9000119800041
:10287000000e20000100700000198800111980006e
:10288000f0ff210000806000101988002343a80099
:1028900011198000f0cf2f0000806000101988000f
:1028a0001119800030f82f00008060000030a00077
:1028b000101988002203a9002223a90025e3a900fa
:1028c000f0c0b30024e3b70021198000f00f2e0000
:1028d0008080600000f02000010070002019880056
:1028e0003303a9002e0ea8002f6ea8006f2ea8009b
:1028f00030c3a8003163a8002e03a800411980004e
:1029000000fc2f00008060004019880028e3a90027
:1029100001a8a90021a8a80021e3a8000080fa00ce
:10292000000006000000fa002023a8000080fa0042
:10293000000006000000fa00c01321000080fa0029
:10294000000006000000fa001bd0bf000080fa0063
:10295000000006000000fa001b70ef000080fa0083
:10296000000006000200fa00004f78003b0007005c
:102970000000e0000c003400a0808000e10921008c
:10298000008040001e487800a08080000000e80021
:10299000a0808800a1808000f0072000808f500078
:1029a000010034001430ef000080fa00000006003f
:1029b0000200fa00b0808000e109210000804000a0
:1029c000104f7800b08080000000e800b0808800e0
:1029d000b1808000f0072000808f5000010034009b
:1029e0001630ef001e4078000080fa00000006005c
:1029f0000000fa00a1808000b0808000808f50002d
:102a00000200320010c0b300010037000040eb00ac
:102a10000080fa00000006000200fa00a180800099
:102a2000b0808000808f500004003500a1808000bd
:102a3000b0808000008f500005003700a08080002b
:102a40000108200080804000b0808000008f50008e
:102a50001e0078000080fa00000006000200fa0064
:102a6000edff070001082000008f50001e007800d5
:102a70000080fa00000006000000fa002002a90011
:102a80000111800090ff2f0000806000001188007d
:102a900020a2a9002062a800500520004011880053
:102aa00023a2a90023e2a9000188a9002188a90086
:102ab00011118000f0f32f000080600010118800d9
:102ac0000168a9002168a90021e2a8002342a8000a
:102ad0000080fa00000006000600fa0010079800c7
:102ae000210798000040eb00004f78000040eb0009
:102af000004f78000e003700000000001111800028
:102b000000202000008060000000e000fbff3a0091
:102b10001e009000104078000080fb00201188000b
:102b20001e0090000000e800100798001e4fe8000b
:102b30009e80fb002e009000808f5000eeff35003d
:102b40000080fa00000006000000fa000e2eef00e0
:102b50001e2eef002e2eef003e2eef004e2eef0029
:102b60005e2eef006e2eef00214ea90060cea90070
:102b700060eea90011cea90011eea90020cea90097
:102b800020eea900103a8000000178000260a10048
:102b90006004200071052000237420008049780023
:102ba00081497800824978002136800000f82f00a2
:102bb000008060008001b30020368800113480005e
:102bc00000fc2f00008060000000a000103488008e
:102bd000103a8000000178000260a000600420002c
:102be0007105200023742000804978008149780015
:102bf000824978000080fa00000006000000fa0018
:102c0000f0032000303a8800213a8000f0f32f00d2
:102c100000806000203a8800213a800000fe2f00ea
:102c2000008060000000a000203a88001200200010
:102c300080072000a109200033742000804978001b
:102c40008149780082497800103a800000017800bc
:102c50000200a00060042000710520002374200001
:102c6000804978008149780082497800000000009e
:102c7000113a8000000027008080600000002100e1
:102c8000808f5000faff3a0000000000113a8000e7
:102c900000022000008060000000e000fbff320026
:082ca0000080fa0000000600ac
:020000040000fa
:102ca8001810000002000000800000000c10000056
:102cb8000400000082000000000020004100000025
:102cc8000010000006000000800000001e11000037
:102cd8001e0000008000000010100000040000002a
:102ce800820000000000a000400000003c1100002d
:102cf8000a000000800000001a1000000200000016
:102d0800800000001e10000080000000800000000d
:102d18000610000006000000800000009e10000061
:102d28008000000080000000141000000400000073
:102d3800800000001c10000002000000800000005d
:042d48000000000087
:020000040000fa
:02000004000af0
:04afe000cfff00009f
:020000040000fa
:02000004000af0
:04afe400f7ff000073
:020000040000fa
:02000004000af0
:04afe8007fff0000e7
:020000040000fa
:02000004000af0
:04afec005fff000003
:020000040000fa
:02000004000af0
:04aff00038ff000026
:020000040000fa
:02000004000af0
:04aff400ffffff005c
:00000001FF
